{
  "_format": "hh-sol-artifact-1",
  "contractName": "PolkadotDAO",
  "sourceName": "contracts/PolkadotDAO.sol",
  "abi": [
    {
      "inputs": [
        {
          "internalType": "address[]",
          "name": "initialMembers",
          "type": "address[]"
        }
      ],
      "stateMutability": "nonpayable",
      "type": "constructor"
    },
    {
      "inputs": [
        {
          "internalType": "address",
          "name": "spender",
          "type": "address"
        },
        {
          "internalType": "uint256",
          "name": "allowance",
          "type": "uint256"
        },
        {
          "internalType": "uint256",
          "name": "needed",
          "type": "uint256"
        }
      ],
      "name": "ERC20InsufficientAllowance",
      "type": "error"
    },
    {
      "inputs": [
        {
          "internalType": "address",
          "name": "sender",
          "type": "address"
        },
        {
          "internalType": "uint256",
          "name": "balance",
          "type": "uint256"
        },
        {
          "internalType": "uint256",
          "name": "needed",
          "type": "uint256"
        }
      ],
      "name": "ERC20InsufficientBalance",
      "type": "error"
    },
    {
      "inputs": [
        {
          "internalType": "address",
          "name": "approver",
          "type": "address"
        }
      ],
      "name": "ERC20InvalidApprover",
      "type": "error"
    },
    {
      "inputs": [
        {
          "internalType": "address",
          "name": "receiver",
          "type": "address"
        }
      ],
      "name": "ERC20InvalidReceiver",
      "type": "error"
    },
    {
      "inputs": [
        {
          "internalType": "address",
          "name": "sender",
          "type": "address"
        }
      ],
      "name": "ERC20InvalidSender",
      "type": "error"
    },
    {
      "inputs": [
        {
          "internalType": "address",
          "name": "spender",
          "type": "address"
        }
      ],
      "name": "ERC20InvalidSpender",
      "type": "error"
    },
    {
      "anonymous": false,
      "inputs": [
        {
          "indexed": true,
          "internalType": "address",
          "name": "owner",
          "type": "address"
        },
        {
          "indexed": true,
          "internalType": "address",
          "name": "spender",
          "type": "address"
        },
        {
          "indexed": false,
          "internalType": "uint256",
          "name": "value",
          "type": "uint256"
        }
      ],
      "name": "Approval",
      "type": "event"
    },
    {
      "anonymous": false,
      "inputs": [
        {
          "indexed": true,
          "internalType": "address",
          "name": "from",
          "type": "address"
        },
        {
          "indexed": true,
          "internalType": "address",
          "name": "to",
          "type": "address"
        },
        {
          "indexed": false,
          "internalType": "uint256",
          "name": "value",
          "type": "uint256"
        }
      ],
      "name": "Transfer",
      "type": "event"
    },
    {
      "inputs": [
        {
          "internalType": "address",
          "name": "newMember",
          "type": "address"
        },
        {
          "internalType": "uint256",
          "name": "tokenAmount",
          "type": "uint256"
        }
      ],
      "name": "addMember",
      "outputs": [],
      "stateMutability": "nonpayable",
      "type": "function"
    },
    {
      "inputs": [
        {
          "internalType": "address",
          "name": "owner",
          "type": "address"
        },
        {
          "internalType": "address",
          "name": "spender",
          "type": "address"
        }
      ],
      "name": "allowance",
      "outputs": [
        {
          "internalType": "uint256",
          "name": "",
          "type": "uint256"
        }
      ],
      "stateMutability": "view",
      "type": "function"
    },
    {
      "inputs": [
        {
          "internalType": "address",
          "name": "spender",
          "type": "address"
        },
        {
          "internalType": "uint256",
          "name": "value",
          "type": "uint256"
        }
      ],
      "name": "approve",
      "outputs": [
        {
          "internalType": "bool",
          "name": "",
          "type": "bool"
        }
      ],
      "stateMutability": "nonpayable",
      "type": "function"
    },
    {
      "inputs": [
        {
          "internalType": "address",
          "name": "account",
          "type": "address"
        }
      ],
      "name": "balanceOf",
      "outputs": [
        {
          "internalType": "uint256",
          "name": "",
          "type": "uint256"
        }
      ],
      "stateMutability": "view",
      "type": "function"
    },
    {
      "inputs": [],
      "name": "decimals",
      "outputs": [
        {
          "internalType": "uint8",
          "name": "",
          "type": "uint8"
        }
      ],
      "stateMutability": "view",
      "type": "function"
    },
    {
      "inputs": [
        {
          "internalType": "uint256",
          "name": "proposalId",
          "type": "uint256"
        }
      ],
      "name": "executeProposal",
      "outputs": [],
      "stateMutability": "nonpayable",
      "type": "function"
    },
    {
      "inputs": [],
      "name": "getProposalCount",
      "outputs": [
        {
          "internalType": "uint256",
          "name": "",
          "type": "uint256"
        }
      ],
      "stateMutability": "view",
      "type": "function"
    },
    {
      "inputs": [
        {
          "internalType": "address",
          "name": "",
          "type": "address"
        },
        {
          "internalType": "uint256",
          "name": "",
          "type": "uint256"
        }
      ],
      "name": "hasVoted",
      "outputs": [
        {
          "internalType": "bool",
          "name": "",
          "type": "bool"
        }
      ],
      "stateMutability": "view",
      "type": "function"
    },
    {
      "inputs": [
        {
          "internalType": "address",
          "name": "",
          "type": "address"
        }
      ],
      "name": "memberTokens",
      "outputs": [
        {
          "internalType": "uint256",
          "name": "",
          "type": "uint256"
        }
      ],
      "stateMutability": "view",
      "type": "function"
    },
    {
      "inputs": [],
      "name": "name",
      "outputs": [
        {
          "internalType": "string",
          "name": "",
          "type": "string"
        }
      ],
      "stateMutability": "view",
      "type": "function"
    },
    {
      "inputs": [
        {
          "internalType": "uint256",
          "name": "",
          "type": "uint256"
        }
      ],
      "name": "proposals",
      "outputs": [
        {
          "internalType": "string",
          "name": "description",
          "type": "string"
        },
        {
          "internalType": "uint256",
          "name": "voteCount",
          "type": "uint256"
        },
        {
          "internalType": "bool",
          "name": "executed",
          "type": "bool"
        },
        {
          "internalType": "address",
          "name": "proposer",
          "type": "address"
        },
        {
          "internalType": "uint256",
          "name": "deadline",
          "type": "uint256"
        }
      ],
      "stateMutability": "view",
      "type": "function"
    },
    {
      "inputs": [
        {
          "internalType": "string",
          "name": "description",
          "type": "string"
        }
      ],
      "name": "propose",
      "outputs": [],
      "stateMutability": "nonpayable",
      "type": "function"
    },
    {
      "inputs": [],
      "name": "symbol",
      "outputs": [
        {
          "internalType": "string",
          "name": "",
          "type": "string"
        }
      ],
      "stateMutability": "view",
      "type": "function"
    },
    {
      "inputs": [],
      "name": "totalMembers",
      "outputs": [
        {
          "internalType": "uint256",
          "name": "",
          "type": "uint256"
        }
      ],
      "stateMutability": "view",
      "type": "function"
    },
    {
      "inputs": [],
      "name": "totalSupply",
      "outputs": [
        {
          "internalType": "uint256",
          "name": "",
          "type": "uint256"
        }
      ],
      "stateMutability": "view",
      "type": "function"
    },
    {
      "inputs": [
        {
          "internalType": "address",
          "name": "to",
          "type": "address"
        },
        {
          "internalType": "uint256",
          "name": "value",
          "type": "uint256"
        }
      ],
      "name": "transfer",
      "outputs": [
        {
          "internalType": "bool",
          "name": "",
          "type": "bool"
        }
      ],
      "stateMutability": "nonpayable",
      "type": "function"
    },
    {
      "inputs": [
        {
          "internalType": "address",
          "name": "from",
          "type": "address"
        },
        {
          "internalType": "address",
          "name": "to",
          "type": "address"
        },
        {
          "internalType": "uint256",
          "name": "value",
          "type": "uint256"
        }
      ],
      "name": "transferFrom",
      "outputs": [
        {
          "internalType": "bool",
          "name": "",
          "type": "bool"
        }
      ],
      "stateMutability": "nonpayable",
      "type": "function"
    },
    {
      "inputs": [
        {
          "internalType": "uint256",
          "name": "proposalId",
          "type": "uint256"
        }
      ],
      "name": "vote",
      "outputs": [],
      "stateMutability": "nonpayable",
      "type": "function"
    }
  ],
  "bytecode": "0x60806040523480156200001157600080fd5b5060405162002e5b38038062002e5b833981810160405281019062000037919062000641565b6040518060400160405280600881526020017f44414f546f6b656e0000000000000000000000000000000000000000000000008152506040518060400160405280600381526020017f44414f00000000000000000000000000000000000000000000000000000000008152508160039081620000b49190620008dd565b508060049081620000c69190620008dd565b50505060005b81518110156200018657606460056000848481518110620000f257620000f1620009c4565b5b602002602001015173ffffffffffffffffffffffffffffffffffffffff1673ffffffffffffffffffffffffffffffffffffffff1681526020019081526020016000208190555062000170828281518110620001525762000151620009c4565b5b602002602001015168056bc75e2d631000006200019660201b60201c565b80806200017d9062000a22565b915050620000cc565b5080516008819055505062000b43565b600073ffffffffffffffffffffffffffffffffffffffff168273ffffffffffffffffffffffffffffffffffffffff16036200020b5760006040517fec442f0500000000000000000000000000000000000000000000000000000000815260040162000202919062000a80565b60405180910390fd5b6200021f600083836200022360201b60201c565b5050565b600073ffffffffffffffffffffffffffffffffffffffff168373ffffffffffffffffffffffffffffffffffffffff1603620002795780600260008282546200026c919062000a9d565b925050819055506200034f565b60008060008573ffffffffffffffffffffffffffffffffffffffff1673ffffffffffffffffffffffffffffffffffffffff1681526020019081526020016000205490508181101562000308578381836040517fe450d38c000000000000000000000000000000000000000000000000000000008152600401620002ff9392919062000ae9565b60405180910390fd5b8181036000808673ffffffffffffffffffffffffffffffffffffffff1673ffffffffffffffffffffffffffffffffffffffff16815260200190815260200160002081905550505b600073ffffffffffffffffffffffffffffffffffffffff168273ffffffffffffffffffffffffffffffffffffffff16036200039a5780600260008282540392505081905550620003e7565b806000808473ffffffffffffffffffffffffffffffffffffffff1673ffffffffffffffffffffffffffffffffffffffff168152602001908152602001600020600082825401925050819055505b8173ffffffffffffffffffffffffffffffffffffffff168373ffffffffffffffffffffffffffffffffffffffff167fddf252ad1be2c89b69c2b068fc378daa952ba7f163c4a11628f55a4df523b3ef8360405162000446919062000b26565b60405180910390a3505050565b6000604051905090565b600080fd5b600080fd5b600080fd5b6000601f19601f8301169050919050565b7f4e487b7100000000000000000000000000000000000000000000000000000000600052604160045260246000fd5b620004b7826200046c565b810181811067ffffffffffffffff82111715620004d957620004d86200047d565b5b80604052505050565b6000620004ee62000453565b9050620004fc8282620004ac565b919050565b600067ffffffffffffffff8211156200051f576200051e6200047d565b5b602082029050602081019050919050565b600080fd5b600073ffffffffffffffffffffffffffffffffffffffff82169050919050565b6000620005628262000535565b9050919050565b620005748162000555565b81146200058057600080fd5b50565b600081519050620005948162000569565b92915050565b6000620005b1620005ab8462000501565b620004e2565b90508083825260208201905060208402830185811115620005d757620005d662000530565b5b835b81811015620006045780620005ef888262000583565b845260208401935050602081019050620005d9565b5050509392505050565b600082601f83011262000626576200062562000467565b5b8151620006388482602086016200059a565b91505092915050565b6000602082840312156200065a57620006596200045d565b5b600082015167ffffffffffffffff8111156200067b576200067a62000462565b5b62000689848285016200060e565b91505092915050565b600081519050919050565b7f4e487b7100000000000000000000000000000000000000000000000000000000600052602260045260246000fd5b60006002820490506001821680620006e557607f821691505b602082108103620006fb57620006fa6200069d565b5b50919050565b60008190508160005260206000209050919050565b60006020601f8301049050919050565b600082821b905092915050565b600060088302620007657fffffffffffffffffffffffffffffffffffffffffffffffffffffffffffffffff8262000726565b62000771868362000726565b95508019841693508086168417925050509392505050565b6000819050919050565b6000819050919050565b6000620007be620007b8620007b28462000789565b62000793565b62000789565b9050919050565b6000819050919050565b620007da836200079d565b620007f2620007e982620007c5565b84845462000733565b825550505050565b600090565b62000809620007fa565b62000816818484620007cf565b505050565b5b818110156200083e5762000832600082620007ff565b6001810190506200081c565b5050565b601f8211156200088d57620008578162000701565b620008628462000716565b8101602085101562000872578190505b6200088a620008818562000716565b8301826200081b565b50505b505050565b600082821c905092915050565b6000620008b26000198460080262000892565b1980831691505092915050565b6000620008cd83836200089f565b9150826002028217905092915050565b620008e88262000692565b67ffffffffffffffff8111156200090457620009036200047d565b5b620009108254620006cc565b6200091d82828562000842565b600060209050601f83116001811462000955576000841562000940578287015190505b6200094c8582620008bf565b865550620009bc565b601f198416620009658662000701565b60005b828110156200098f5784890151825560018201915060208501945060208101905062000968565b86831015620009af5784890151620009ab601f8916826200089f565b8355505b6001600288020188555050505b505050505050565b7f4e487b7100000000000000000000000000000000000000000000000000000000600052603260045260246000fd5b7f4e487b7100000000000000000000000000000000000000000000000000000000600052601160045260246000fd5b600062000a2f8262000789565b91507fffffffffffffffffffffffffffffffffffffffffffffffffffffffffffffffff820362000a645762000a63620009f3565b5b600182019050919050565b62000a7a8162000555565b82525050565b600060208201905062000a97600083018462000a6f565b92915050565b600062000aaa8262000789565b915062000ab78362000789565b925082820190508082111562000ad25762000ad1620009f3565b5b92915050565b62000ae38162000789565b82525050565b600060608201905062000b00600083018662000a6f565b62000b0f602083018562000ad8565b62000b1e604083018462000ad8565b949350505050565b600060208201905062000b3d600083018462000ad8565b92915050565b6123088062000b536000396000f3fe608060405234801561001057600080fd5b50600436106101165760003560e01c806370a08231116100a2578063a5c7900e11610071578063a5c7900e146102f9578063a9059cbb14610329578063aa98df3914610359578063c08cc02d14610375578063dd62ed3e1461039357610116565b806370a082311461027157806376e92559146102a157806395d89b41146102bf57806398041ea3146102dd57610116565b80630d61b519116100e95780630d61b519146101b957806318160ddd146101d557806323b872dd146101f3578063313ce56714610223578063425458251461024157610116565b80630121b93f1461011b578063013cf08b1461013757806306fdde031461016b578063095ea7b314610189575b600080fd5b6101356004803603810190610130919061160b565b6103c3565b005b610151600480360381019061014c919061160b565b6106b5565b604051610162959493929190611733565b60405180910390f35b6101736107b0565b604051610180919061178d565b60405180910390f35b6101a3600480360381019061019e91906117db565b610842565b6040516101b0919061181b565b60405180910390f35b6101d360048036038101906101ce919061160b565b610865565b005b6101dd610a67565b6040516101ea9190611836565b60405180910390f35b61020d60048036038101906102089190611851565b610a71565b60405161021a919061181b565b60405180910390f35b61022b610aa0565b60405161023891906118c0565b60405180910390f35b61025b600480360381019061025691906117db565b610aa9565b604051610268919061181b565b60405180910390f35b61028b600480360381019061028691906118db565b610ad8565b6040516102989190611836565b60405180910390f35b6102a9610b20565b6040516102b69190611836565b60405180910390f35b6102c7610b26565b6040516102d4919061178d565b60405180910390f35b6102f760048036038101906102f291906117db565b610bb8565b005b610313600480360381019061030e91906118db565b610d39565b6040516103209190611836565b60405180910390f35b610343600480360381019061033e91906117db565b610d51565b604051610350919061181b565b60405180910390f35b610373600480360381019061036e9190611a3d565b610d74565b005b61037d610f0c565b60405161038a9190611836565b60405180910390f35b6103ad60048036038101906103a89190611a86565b610f19565b6040516103ba9190611836565b60405180910390f35b6000600560003373ffffffffffffffffffffffffffffffffffffffff1673ffffffffffffffffffffffffffffffffffffffff1681526020019081526020016000205411610445576040517f08c379a000000000000000000000000000000000000000000000000000000000815260040161043c90611b12565b60405180910390fd5b600780549050811061048c576040517f08c379a000000000000000000000000000000000000000000000000000000000815260040161048390611b7e565b60405180910390fd5b6000600782815481106104a2576104a1611b9e565b5b90600052602060002090600402019050806003015442106104f8576040517f08c379a00000000000000000000000000000000000000000000000000000000081526004016104ef90611c19565b60405180910390fd5b8060020160009054906101000a900460ff161561054a576040517f08c379a000000000000000000000000000000000000000000000000000000000815260040161054190611c85565b60405180910390fd5b600660003373ffffffffffffffffffffffffffffffffffffffff1673ffffffffffffffffffffffffffffffffffffffff168152602001908152602001600020600083815260200190815260200160002060009054906101000a900460ff16156105e8576040517f08c379a00000000000000000000000000000000000000000000000000000000081526004016105df90611cf1565b60405180910390fd5b6000600560003373ffffffffffffffffffffffffffffffffffffffff1673ffffffffffffffffffffffffffffffffffffffff168152602001908152602001600020549050808260010160008282546106409190611d40565b925050819055506001600660003373ffffffffffffffffffffffffffffffffffffffff1673ffffffffffffffffffffffffffffffffffffffff168152602001908152602001600020600085815260200190815260200160002060006101000a81548160ff021916908315150217905550505050565b600781815481106106c557600080fd5b90600052602060002090600402016000915090508060000180546106e890611da3565b80601f016020809104026020016040519081016040528092919081815260200182805461071490611da3565b80156107615780601f1061073657610100808354040283529160200191610761565b820191906000526020600020905b81548152906001019060200180831161074457829003601f168201915b5050505050908060010154908060020160009054906101000a900460ff16908060020160019054906101000a900473ffffffffffffffffffffffffffffffffffffffff16908060030154905085565b6060600380546107bf90611da3565b80601f01602080910402602001604051908101604052809291908181526020018280546107eb90611da3565b80156108385780601f1061080d57610100808354040283529160200191610838565b820191906000526020600020905b81548152906001019060200180831161081b57829003601f168201915b5050505050905090565b60008061084d610fa0565b905061085a818585610fa8565b600191505092915050565b6000600560003373ffffffffffffffffffffffffffffffffffffffff1673ffffffffffffffffffffffffffffffffffffffff16815260200190815260200160002054116108e7576040517f08c379a00000000000000000000000000000000000000000000000000000000081526004016108de90611b12565b60405180910390fd5b600780549050811061092e576040517f08c379a000000000000000000000000000000000000000000000000000000000815260040161092590611b7e565b60405180910390fd5b60006007828154811061094457610943611b9e565b5b90600052602060002090600402019050806003015442101561099b576040517f08c379a000000000000000000000000000000000000000000000000000000000815260040161099290611e20565b60405180910390fd5b8060020160009054906101000a900460ff16156109ed576040517f08c379a00000000000000000000000000000000000000000000000000000000081526004016109e490611c85565b60405180910390fd5b60026109f7610a67565b610a019190611e6f565b816001015411610a46576040517f08c379a0000000000000000000000000000000000000000000000000000000008152600401610a3d90611eec565b60405180910390fd5b60018160020160006101000a81548160ff0219169083151502179055505050565b6000600254905090565b600080610a7c610fa0565b9050610a89858285610fba565b610a9485858561104f565b60019150509392505050565b60006012905090565b60066020528160005260406000206020528060005260406000206000915091509054906101000a900460ff1681565b60008060008373ffffffffffffffffffffffffffffffffffffffff1673ffffffffffffffffffffffffffffffffffffffff168152602001908152602001600020549050919050565b60085481565b606060048054610b3590611da3565b80601f0160208091040260200160405190810160405280929190818152602001828054610b6190611da3565b8015610bae5780601f10610b8357610100808354040283529160200191610bae565b820191906000526020600020905b815481529060010190602001808311610b9157829003601f168201915b5050505050905090565b6000600560003373ffffffffffffffffffffffffffffffffffffffff1673ffffffffffffffffffffffffffffffffffffffff1681526020019081526020016000205411610c3a576040517f08c379a0000000000000000000000000000000000000000000000000000000008152600401610c3190611b12565b60405180910390fd5b6000600560008473ffffffffffffffffffffffffffffffffffffffff1673ffffffffffffffffffffffffffffffffffffffff1681526020019081526020016000205414610cbc576040517f08c379a0000000000000000000000000000000000000000000000000000000008152600401610cb390611f58565b60405180910390fd5b80600560008473ffffffffffffffffffffffffffffffffffffffff1673ffffffffffffffffffffffffffffffffffffffff1681526020019081526020016000208190555060086000815480929190610d1390611f78565b9190505550610d3582670de0b6b3a764000083610d309190611fc0565b611143565b5050565b60056020528060005260406000206000915090505481565b600080610d5c610fa0565b9050610d6981858561104f565b600191505092915050565b6000600560003373ffffffffffffffffffffffffffffffffffffffff1673ffffffffffffffffffffffffffffffffffffffff1681526020019081526020016000205411610df6576040517f08c379a0000000000000000000000000000000000000000000000000000000008152600401610ded90611b12565b60405180910390fd5b60006203f48042610e079190611d40565b905060076040518060a00160405280848152602001600081526020016000151581526020013373ffffffffffffffffffffffffffffffffffffffff1681526020018381525090806001815401808255809150506001900390600052602060002090600402016000909190919091506000820151816000019081610e8a91906121ae565b506020820151816001015560408201518160020160006101000a81548160ff02191690831515021790555060608201518160020160016101000a81548173ffffffffffffffffffffffffffffffffffffffff021916908373ffffffffffffffffffffffffffffffffffffffff1602179055506080820151816003015550505050565b6000600780549050905090565b6000600160008473ffffffffffffffffffffffffffffffffffffffff1673ffffffffffffffffffffffffffffffffffffffff16815260200190815260200160002060008373ffffffffffffffffffffffffffffffffffffffff1673ffffffffffffffffffffffffffffffffffffffff16815260200190815260200160002054905092915050565b600033905090565b610fb583838360016111c5565b505050565b6000610fc68484610f19565b90507fffffffffffffffffffffffffffffffffffffffffffffffffffffffffffffffff8110156110495781811015611039578281836040517ffb8f41b200000000000000000000000000000000000000000000000000000000815260040161103093929190612280565b60405180910390fd5b611048848484840360006111c5565b5b50505050565b600073ffffffffffffffffffffffffffffffffffffffff168373ffffffffffffffffffffffffffffffffffffffff16036110c15760006040517f96c6fd1e0000000000000000000000000000000000000000000000000000000081526004016110b891906122b7565b60405180910390fd5b600073ffffffffffffffffffffffffffffffffffffffff168273ffffffffffffffffffffffffffffffffffffffff16036111335760006040517fec442f0500000000000000000000000000000000000000000000000000000000815260040161112a91906122b7565b60405180910390fd5b61113e83838361139c565b505050565b600073ffffffffffffffffffffffffffffffffffffffff168273ffffffffffffffffffffffffffffffffffffffff16036111b55760006040517fec442f050000000000000000000000000000000000000000000000000000000081526004016111ac91906122b7565b60405180910390fd5b6111c16000838361139c565b5050565b600073ffffffffffffffffffffffffffffffffffffffff168473ffffffffffffffffffffffffffffffffffffffff16036112375760006040517fe602df0500000000000000000000000000000000000000000000000000000000815260040161122e91906122b7565b60405180910390fd5b600073ffffffffffffffffffffffffffffffffffffffff168373ffffffffffffffffffffffffffffffffffffffff16036112a95760006040517f94280d620000000000000000000000000000000000000000000000000000000081526004016112a091906122b7565b60405180910390fd5b81600160008673ffffffffffffffffffffffffffffffffffffffff1673ffffffffffffffffffffffffffffffffffffffff16815260200190815260200160002060008573ffffffffffffffffffffffffffffffffffffffff1673ffffffffffffffffffffffffffffffffffffffff168152602001908152602001600020819055508015611396578273ffffffffffffffffffffffffffffffffffffffff168473ffffffffffffffffffffffffffffffffffffffff167f8c5be1e5ebec7d5bd14f71427d1e84f3dd0314c0f7b2291e5b200ac8c7c3b9258460405161138d9190611836565b60405180910390a35b50505050565b600073ffffffffffffffffffffffffffffffffffffffff168373ffffffffffffffffffffffffffffffffffffffff16036113ee5780600260008282546113e29190611d40565b925050819055506114c1565b60008060008573ffffffffffffffffffffffffffffffffffffffff1673ffffffffffffffffffffffffffffffffffffffff1681526020019081526020016000205490508181101561147a578381836040517fe450d38c00000000000000000000000000000000000000000000000000000000815260040161147193929190612280565b60405180910390fd5b8181036000808673ffffffffffffffffffffffffffffffffffffffff1673ffffffffffffffffffffffffffffffffffffffff16815260200190815260200160002081905550505b600073ffffffffffffffffffffffffffffffffffffffff168273ffffffffffffffffffffffffffffffffffffffff160361150a5780600260008282540392505081905550611557565b806000808473ffffffffffffffffffffffffffffffffffffffff1673ffffffffffffffffffffffffffffffffffffffff168152602001908152602001600020600082825401925050819055505b8173ffffffffffffffffffffffffffffffffffffffff168373ffffffffffffffffffffffffffffffffffffffff167fddf252ad1be2c89b69c2b068fc378daa952ba7f163c4a11628f55a4df523b3ef836040516115b49190611836565b60405180910390a3505050565b6000604051905090565b600080fd5b600080fd5b6000819050919050565b6115e8816115d5565b81146115f357600080fd5b50565b600081359050611605816115df565b92915050565b600060208284031215611621576116206115cb565b5b600061162f848285016115f6565b91505092915050565b600081519050919050565b600082825260208201905092915050565b60005b83811015611672578082015181840152602081019050611657565b60008484015250505050565b6000601f19601f8301169050919050565b600061169a82611638565b6116a48185611643565b93506116b4818560208601611654565b6116bd8161167e565b840191505092915050565b6116d1816115d5565b82525050565b60008115159050919050565b6116ec816116d7565b82525050565b600073ffffffffffffffffffffffffffffffffffffffff82169050919050565b600061171d826116f2565b9050919050565b61172d81611712565b82525050565b600060a082019050818103600083015261174d818861168f565b905061175c60208301876116c8565b61176960408301866116e3565b6117766060830185611724565b61178360808301846116c8565b9695505050505050565b600060208201905081810360008301526117a7818461168f565b905092915050565b6117b881611712565b81146117c357600080fd5b50565b6000813590506117d5816117af565b92915050565b600080604083850312156117f2576117f16115cb565b5b6000611800858286016117c6565b9250506020611811858286016115f6565b9150509250929050565b600060208201905061183060008301846116e3565b92915050565b600060208201905061184b60008301846116c8565b92915050565b60008060006060848603121561186a576118696115cb565b5b6000611878868287016117c6565b9350506020611889868287016117c6565b925050604061189a868287016115f6565b9150509250925092565b600060ff82169050919050565b6118ba816118a4565b82525050565b60006020820190506118d560008301846118b1565b92915050565b6000602082840312156118f1576118f06115cb565b5b60006118ff848285016117c6565b91505092915050565b600080fd5b600080fd5b7f4e487b7100000000000000000000000000000000000000000000000000000000600052604160045260246000fd5b61194a8261167e565b810181811067ffffffffffffffff8211171561196957611968611912565b5b80604052505050565b600061197c6115c1565b90506119888282611941565b919050565b600067ffffffffffffffff8211156119a8576119a7611912565b5b6119b18261167e565b9050602081019050919050565b82818337600083830152505050565b60006119e06119db8461198d565b611972565b9050828152602081018484840111156119fc576119fb61190d565b5b611a078482856119be565b509392505050565b600082601f830112611a2457611a23611908565b5b8135611a348482602086016119cd565b91505092915050565b600060208284031215611a5357611a526115cb565b5b600082013567ffffffffffffffff811115611a7157611a706115d0565b5b611a7d84828501611a0f565b91505092915050565b60008060408385031215611a9d57611a9c6115cb565b5b6000611aab858286016117c6565b9250506020611abc858286016117c6565b9150509250929050565b7f4f6e6c7920746f6b656e20686f6c646572732063616e20646f20746869732100600082015250565b6000611afc601f83611643565b9150611b0782611ac6565b602082019050919050565b60006020820190508181036000830152611b2b81611aef565b9050919050565b7f496e76616c69642070726f706f73616c20494421000000000000000000000000600082015250565b6000611b68601483611643565b9150611b7382611b32565b602082019050919050565b60006020820190508181036000830152611b9781611b5b565b9050919050565b7f4e487b7100000000000000000000000000000000000000000000000000000000600052603260045260246000fd5b7f566f74696e672068617320656e64656421000000000000000000000000000000600082015250565b6000611c03601183611643565b9150611c0e82611bcd565b602082019050919050565b60006020820190508181036000830152611c3281611bf6565b9050919050565b7f416c726561647920657865637574656421000000000000000000000000000000600082015250565b6000611c6f601183611643565b9150611c7a82611c39565b602082019050919050565b60006020820190508181036000830152611c9e81611c62565b9050919050565b7f416c726561647920766f74656421000000000000000000000000000000000000600082015250565b6000611cdb600e83611643565b9150611ce682611ca5565b602082019050919050565b60006020820190508181036000830152611d0a81611cce565b9050919050565b7f4e487b7100000000000000000000000000000000000000000000000000000000600052601160045260246000fd5b6000611d4b826115d5565b9150611d56836115d5565b9250828201905080821115611d6e57611d6d611d11565b5b92915050565b7f4e487b7100000000000000000000000000000000000000000000000000000000600052602260045260246000fd5b60006002820490506001821680611dbb57607f821691505b602082108103611dce57611dcd611d74565b5b50919050565b7f566f74696e67207374696c6c2061637469766521000000000000000000000000600082015250565b6000611e0a601483611643565b9150611e1582611dd4565b602082019050919050565b60006020820190508181036000830152611e3981611dfd565b9050919050565b7f4e487b7100000000000000000000000000000000000000000000000000000000600052601260045260246000fd5b6000611e7a826115d5565b9150611e85836115d5565b925082611e9557611e94611e40565b5b828204905092915050565b7f4e6f7420656e6f75676820766f74657321000000000000000000000000000000600082015250565b6000611ed6601183611643565b9150611ee182611ea0565b602082019050919050565b60006020820190508181036000830152611f0581611ec9565b9050919050565b7f416c72656164792061206d656d62657221000000000000000000000000000000600082015250565b6000611f42601183611643565b9150611f4d82611f0c565b602082019050919050565b60006020820190508181036000830152611f7181611f35565b9050919050565b6000611f83826115d5565b91507fffffffffffffffffffffffffffffffffffffffffffffffffffffffffffffffff8203611fb557611fb4611d11565b5b600182019050919050565b6000611fcb826115d5565b9150611fd6836115d5565b9250828202611fe4816115d5565b91508282048414831517611ffb57611ffa611d11565b5b5092915050565b60008190508160005260206000209050919050565b60006020601f8301049050919050565b600082821b905092915050565b6000600883026120647fffffffffffffffffffffffffffffffffffffffffffffffffffffffffffffffff82612027565b61206e8683612027565b95508019841693508086168417925050509392505050565b6000819050919050565b60006120ab6120a66120a1846115d5565b612086565b6115d5565b9050919050565b6000819050919050565b6120c583612090565b6120d96120d1826120b2565b848454612034565b825550505050565b600090565b6120ee6120e1565b6120f98184846120bc565b505050565b5b8181101561211d576121126000826120e6565b6001810190506120ff565b5050565b601f8211156121625761213381612002565b61213c84612017565b8101602085101561214b578190505b61215f61215785612017565b8301826120fe565b50505b505050565b600082821c905092915050565b600061218560001984600802612167565b1980831691505092915050565b600061219e8383612174565b9150826002028217905092915050565b6121b782611638565b67ffffffffffffffff8111156121d0576121cf611912565b5b6121da8254611da3565b6121e5828285612121565b600060209050601f8311600181146122185760008415612206578287015190505b6122108582612192565b865550612278565b601f19841661222686612002565b60005b8281101561224e57848901518255600182019150602085019450602081019050612229565b8683101561226b5784890151612267601f891682612174565b8355505b6001600288020188555050505b505050505050565b60006060820190506122956000830186611724565b6122a260208301856116c8565b6122af60408301846116c8565b949350505050565b60006020820190506122cc6000830184611724565b9291505056fea2646970667358221220b45dc11df98aea8f5bda7743a076e45801eeb746a58c96000d763c6537da6a5164736f6c63430008140033",
  "linkReferences": {},
  "deployedLinkReferences": {}
}